:020000040800F2
:10000000D8FF0120010B0008490800084F0800082C
:10001000550800085B08000861080008000000009F
:100020000000000000000000000000006708000859
:100030007508000800000000830800089108000807
:10004000510B0008510B0008510B0008510B000820
:10005000510B0008510B0008510B0008510B000810
:10006000510B0008510B0008510B0008510B000800
:10007000510B0008510B0008510B0008510B0008F0
:10008000510B0008510B0008510B0008510B0008E0
:10009000510B0008510B0008510B0008510B0008D0
:1000A000510B0008510B0008510B0008510B0008C0
:1000B000510B0008510B0008510B0008510B0008B0
:1000C000510B0008510B0008510B0008510B0008A0
:1000D000510B0008510B0008510B0008510B000890
:1000E000510B0008510B0008510B0008510B000880
:1000F000510B0008510B0008510B0008510B000870
:10010000510B0008510B0008510B0008510B00085F
:10011000510B0008510B0008510B0008510B00084F
:10012000510B0008510B0008510B0008510B00083F
:10013000510B00080000000000000000510B0008F7
:10014000510B0008510B0008510B00089D080008D6
:10015000510B0008510B0008510B0008510B00080F
:10016000510B0008510B0008510B0008510B0008FF
:10017000510B0008510B0008510B00080000000053
:1001800000000000510B000800000000000000000B
:10019000510B00080000000000000000510B000897
:1001A000000000000000000000000000510B0008EB
:1001B000510B0008510B0008510B0008510B0008AF
:0401C000510B0008D7
:1001D00010B5054C237833B9044B13B10448AFF381
:1001E00000800123237010BD940000200000000057
:1001F000C4D4000808B5034B1BB103490348AFF34F
:10020000008008BD0000000098000020C4D4000851
:1002100001F0FF01102A2BDB10F0070F08D010F8B7
:10022000013B013A8B422DD010F0070F42B3F6D1BB
:10023000F0B441EA012141EA014122F007047FF0D4
:1002400000070023F0E80256083C85EA010586EA2B
:10025000010685FA47F5A3FA87F586FA47F6A5FA67
:1002600087F68EB9EED1F0BC01F0FF0102F0070273
:1002700032B110F8013B013A83EA010313B1F8D11E
:100280000020704701387047002D06BF35460338FF
:10029000073815F0010F07D1013015F4807F02BF38
:1002A000013015F4C03F0130F0BC0138704700BF89
:1002B00053B94AB9002908BF00281CBF4FF0FF31CD
:1002C0004FF0FF3000F074B9ADF1080C6DE904CEC9
:1002D00000F006F8DDF804E0DDE9022304B0704721
:1002E0002DE9F047089D04468E46002B4DD18A42E9
:1002F000944669D9B2FA82F252B101FA02F3C2F11C
:10030000200120FA01F10CFA02FC41EA030E9440AC
:100310004FEA1C48210CBEFBF8F61FFA8CF708FBCD
:1003200016E341EA034306FB07F199420AD91CEBA5
:10033000030306F1FF3080F01F81994240F21C81D7
:10034000023E63445B1AA4B2B3FBF8F008FB10331F
:1003500044EA034400FB07F7A7420AD91CEB040454
:1003600000F1FF3380F00A81A74240F20781644424
:10037000023840EA0640E41B00261DB1D4400023A9
:10038000C5E900433146BDE8F0878B4209D9002D0D
:1003900000F0EF800026C5E9000130463146BDE897
:1003A000F087B3FA83F6002E4AD18B4202D3824201
:1003B00000F2F980841A61EB030301209E46002DB0
:1003C000E0D0C5E9004EDDE702B9FFDEB2FA82F205
:1003D000002A40F09280A1EB0C014FEA1C471FFA63
:1003E0008CFE0126200CB1FBF7F307FB131140EA4A
:1003F00001410EFB03F0884208D91CEB010103F117
:10040000FF3802D2884200F2CB804346091AA4B2D8
:10041000B1FBF7F007FB101144EA01440EFB00FEAC
:10042000A64508D91CEB040400F1FF3102D2A64511
:1004300000F2BB800846A4EB0E0440EA03409CE7B0
:10044000C6F12007B34022FA07FC4CEA030C20FA5D
:1004500007F401FA06F31C43F9404FEA1C4900FA7D
:1004600006F3B1FBF9F8200C1FFA8CFE09FB1811FA
:1004700040EA014108FB0EF0884202FA06F20BD96D
:100480001CEB010108F1FF3A80F08880884240F2BD
:100490008580A8F102086144091AA4B2B1FBF9F001
:1004A00009FB101144EA014100FB0EFE8E4508D9FC
:1004B0001CEB010100F1FF346CD28E456AD9023881
:1004C000614440EA0840A0FB0294A1EB0E01A14266
:1004D000C846A64656D353D05DB1B3EB080261EBD4
:1004E0000E0101FA07F722FA06F3F1401F43C5E9AE
:1004F000007100263146BDE8F087C2F12003D840E4
:100500000CFA02FC21FA03F3914001434FEA1C4725
:100510001FFA8CFEB3FBF7F007FB10360B0C43EA17
:10052000064300FB0EF69E4204FA02F408D91CEBC7
:10053000030300F1FF382FD29E422DD902386344C5
:100540009B1B89B2B3FBF7F607FB163341EA034165
:1005500006FB0EF38B4208D91CEB010106F1FF38B4
:1005600016D28B4214D9023E6144C91A46EA0046AB
:1005700038E72E46284605E70646E3E61846F8E63D
:100580004B45A9D2B9EB020864EB0C0E0138A3E786
:100590004646EAE7204694E74046D1E7D0467BE767
:1005A000023B614432E7304609E76444023842E7DF
:1005B000704700BF80B588B000AF07F10C03002280
:1005C0001A605A609A60DA601A610023BB60184BA7
:1005D0001B6B174A43F080031363154B1B6B03F02F
:1005E0008003BB60BB6800237B60114B1B6B104A10
:1005F00043F0010313630E4B1B6B03F001037B609D
:100600007B68002202210B4801F0FAF90223FB600B
:1006100001233B6100237B610023BB6107F10C03D5
:100620001946044800F064FF00BF2037BD4680BD76
:10063000003802400000024080B582B000AF786010
:10064000391D4FF6FF730122034803F044FF7B6816
:1006500018460837BD4680BDB800002080B500AF01
:10066000084B1B68084A93420AD1064B00221A60C5
:10067000064B1B681A46064B1A60054B1B689847C9
:1006800000BF80BDFCFF0120EFBEADDE0400FF1FF8
:10069000B000002080B500AFFFF7E0FF00F05AFA8D
:1006A00000F02EF8FFF786FF05F064FA0BF0BEF8B5
:1006B00000F0B4F900F0B4FA034603F5FA630B4A0C
:1006C00013600BF0D9F80A4B1B78194609480BF058
:1006D000D5FF09480CF058F800F0A2FA0346194675
:1006E00006480BF0CBFF0BF04BFDEAE7DC0C0120DA
:1006F00094090020DCD40008E8D40008F0D40008F5
:1007000080B594B000AF07F11C03342200211846D5
:100710000BF0CCFE07F1080300221A605A609A60C1
:10072000DA601A6100237B602C4B1B6C2B4A43F070
:1007300080531364294B1B6C03F080537B607B68F0
:1007400000233B60264B1B68254A43F4404313605B
:10075000234B1B6803F440433B603B680123FB6170
:100760004FF480333B6202237B634FF48003BB630F
:100770000623FB63B4233B6402237B640223BB6434
:100780000223FB6407F11C03184603F0B9FB034680
:10079000002B01D000F026F802F074FD0346002B78
:1007A00001D000F01FF80F23BB600323FB60002380
:1007B0003B614FF4A0537B614FF48053BB6107F161
:1007C00008030521184602F0ADFD0346002B01D0B9
:1007D00000F008F800BF5037BD4680BD0038024029
:1007E0000070004080B500AF72B600BF01480BF04A
:1007F000CBFFFEE7F4D4000880B483B000AF002341
:100800007B60104B5B6C0F4A43F4804353640D4B89
:100810005B6C03F480437B607B6800233B60094B87
:100820001B6C084A43F080531364064B1B6C03F0A7
:1008300080533B603B6800BF0C37BD465DF8047BCE
:10084000704700BF0038024080B400AFFEE780B4BC
:1008500000AFFEE780B400AFFEE780B400AFFEE774
:1008600080B400AFFEE780B400AF00BFBD465DF8C6
:10087000047B704780B400AF00BFBD465DF8047BC9
:10088000704780B400AF00BFBD465DF8047B704781
:1008900080B500AF00F0B0F900BF80BD80B500AFFB
:1008A000024801F04FFB00BF80BD00BF9809002047
:1008B00080B586B000AFF860B9607A6000237B61D4
:1008C0000AE0AFF300800146BB685A1CBA60CAB2A6
:1008D0001A707B6901337B617A697B689A42F0DB2D
:1008E0007B6818461837BD4680BD80B586B000AF1E
:1008F000F860B9607A6000237B6109E0BB685A1C2C
:10090000BA601B781846FFF797FE7B6901337B615D
:100910007A697B689A42F1DB7B6818461837BD46D6
:1009200080BD80B483B000AF78604FF0FF331846CD
:100930000C37BD465DF8047B704780B483B000AFD0
:10094000786039603B684FF400525A6000231846C3
:100950000C37BD465DF8047B704780B483B000AFB0
:100960007860012318460C37BD465DF8047B70475C
:1009700080B485B000AFF860B9607A600023184693
:100980001437BD465DF8047B7047000080B586B023
:1009900000AF7860144A154BD31A7B617B693B61C9
:1009A000134B1B68002B02D1114B124A1A60104BDB
:1009B0001A687B6813443A699A4207D20BF02EFDFD
:1009C00003460C221A604FF0FF3309E0084B1B6806
:1009D000FB60074B1A687B681344054A1360FB6889
:1009E00018461837BD4680BDD8FF01200010000012
:1009F000B4000020F00C012080B400AF064BD3F807
:100A00008830054A43F47003C2F8883000BFBD4601
:100A10005DF8047B704700BF00ED00E080B500AFDB
:100A2000114B124A1A60104B4FF4E1325A600E4BD0
:100A300000229A600C4B0022DA600B4B00221A61F4
:100A4000094B0C225A61084B00229A61064B002286
:100A5000DA61054803F0F2FC0346002B01D0FFF7F2
:100A6000C1FE00BF80BD00BFB800002000100140E3
:100A700080B58AB000AF786007F1140300221A60D5
:100A80005A609A60DA601A617B681B68194A93425F
:100A90002CD100233B61184B5B6C174A43F01003C9
:100AA0005364154B5B6C03F010033B613B690023FF
:100AB000FB60114B1B6B104A43F0010313630E4B99
:100AC0001B6B03F00103FB60FB684FF4C0637B61A9
:100AD0000223BB610023FB6103233B6207237B628C
:100AE00007F114031946054800F002FD00BF28373E
:100AF000BD4680BD001001400038024000000240A9
:100B0000DFF834D00D480E490E4A002302E0D458D5
:100B1000C4500433C4188C42F9D30B4A0B4C002345
:100B200001E013600432A242FBD3FFF765FF0BF034
:100B30007BFCFFF7AFFD7047D8FF012000000020CD
:100B400094000020F4D7000894000020F00C01204D
:100B5000FEE7000080B500AF0E4B1B680D4A43F462
:100B6000007313600B4B1B680A4A43F480631360E5
:100B7000084B1B68074A43F480731360032000F09E
:100B800073F90F2000F008F8FFF736FE002318462F
:100B900080BD00BF003C024080B582B000AF7860ED
:100BA000124B1A68124B1B7819464FF47A73B3FB39
:100BB000F1F3B2FBF3F3184600F099F90346002B6A
:100BC00001D001230EE07B680F2B0AD80022796840
:100BD0004FF0FF3000F053F9064A7B6813600023A2
:100BE00000E0012318460837BD4680BD0000002004
:100BF000080000200400002080B400AF064B1B78E2
:100C00001A46064B1B681344044A136000BFBD46D6
:100C10005DF8047B704700BF08000020FC00002046
:100C200080B400AF034B1B681846BD465DF8047BDB
:100C3000704700BFFC00002080B584B000AF786032
:100C4000FFF7EEFFB8607B68FB60FB68B3F1FF3F26
:100C500005D00A4B1B781A46FB681344FB6000BFA3
:100C6000FFF7DEFF0246BB68D31AFA689A42F7D84C
:100C700000BF00BF1037BD4680BD00BF0800002088
:100C800080B485B000AF78607B6803F00703FB6039
:100C90000C4BDB68BB60BA684FF6FF031340BB60C8
:100CA000FB681A02BB68134343F0BF6343F400338D
:100CB000BB60044ABB68D36000BF1437BD465DF813
:100CC000047B704700ED00E080B400AF044BDB68AC
:100CD0001B0A03F007031846BD465DF8047B704706
:100CE00000ED00E080B483B000AF0346FB7197F9DC
:100CF0000730002B0BDBFB7903F01F02074997F944
:100D000007305B09012000FA02F241F8232000BFFE
:100D10000C37BD465DF8047B704700BF00E100E082
:100D200080B483B000AF0346FB7197F90730002B06
:100D300012DBFB7903F01F020A4997F907305B09C0
:100D4000012000FA02F2203341F82320BFF34F8F35
:100D500000BFBFF36F8F00BF00BF0C37BD465DF80B
:100D6000047B704700E100E080B483B000AF03462D
:100D70003960FB7197F90730002B0ADB3B68DAB268
:100D80000C4997F907301201D2B20B4483F80023C3
:100D90000AE03B68DAB20849FB7903F00F03043B31
:100DA0001201D2B20B441A7600BF0C37BD465DF873
:100DB000047B704700E100E000ED00E080B489B002
:100DC00000AFF860B9607A60FB6803F00703FB616D
:100DD000FB69C3F10703042B28BF0423BB61FB6934
:100DE0000433062B02D9FB69033B00E000237B613F
:100DF0004FF0FF32BB6902FA03F3DA43BB681A40D3
:100E00007B699A404FF0FF317B6901FA03F3D943C4
:100E10007B680B40134318462437BD465DF8047BBE
:100E20007047000080B582B000AF78607B68013BFE
:100E3000B3F1807F01D301230FE00A4A7B68013BB5
:100E400053600F214FF0FF30FFF78EFF054B00225C
:100E50009A60044B07221A60002318460837BD46E3
:100E600080BD00BF10E000E080B582B000AF7860C8
:100E70007868FFF705FF00BF0837BD4680BD80B525
:100E800086B000AF0346B9607A60FB7300237B61D4
:100E9000FFF71AFF78617A68B9687869FFF78EFF03
:100EA000024697F90F3011461846FFF75DFF00BF65
:100EB0001837BD4680BD80B582B000AF0346FB71D8
:100EC00097F907301846FFF70DFF00BF0837BD46FA
:100ED00080BD80B582B000AF0346FB7197F9073043
:100EE0001846FFF71DFF00BF0837BD4680BD80B51F
:100EF00082B000AF78607868FFF794FF0346184629
:100F00000837BD4680BD000080B586B000AFF860F0
:100F1000B960C7E900230123FB75234B1B7E012B1E
:100F200001D102233BE0204B01221A764CF25030D3
:100F300000F07CF80346FB75FB7D002B2BD1FB6892
:100F4000002B05D13B781946B86800F027F916E068
:100F5000FB68012B05D13B881946B86800F0FAF808
:100F60000DE0FB68022B05D13B681946B86800F01C
:100F7000CFF804E0D7E90023B86800F097F84CF206
:100F8000503000F053F80346FB75084B1B69074AC5
:100F900023F001031361044B00221A76FB7D1846EF
:100FA0001837BD4680BD00BF00010020003C024054
:100FB00080B483B000AF0023FB710B4B1B69002B87
:100FC0000BDA094B094A5A60074B094A5A60064B2B
:100FD0001B69002B01DA0123FB71FB7918460C37E2
:100FE000BD465DF8047B7047003C02402301674525
:100FF000AB89EFCD80B400AF054B1B69044A43F0C9
:101000000043136100231846BD465DF8047B70471A
:10101000003C024080B400AF034BDB691846BD467C
:101020005DF8047B704700BF0001002080B584B0EC
:1010300000AF78600023FB601A4B0022DA61FFF7F3
:10104000EFFDF86010E07B68B3F1FF3F0CD07B68E8
:10105000002B07D0FFF7E4FD0246FB68D31A7A683D
:101060009A4201D2032319E00F4BDB6803F480336B
:10107000002BE8D10C4BDB6803F00103002B02D0FE
:10108000094B0122DA60084BDB6803F4F973002B8B
:1010900003D000F0A5F8012300E000231846103724
:1010A000BD4680BD00010020003C024080B485B0F8
:1010B00000AFF860C7E90023144B1B69134A23F4FF
:1010C00040731361114B1B69104A43F44073136161
:1010D0000E4B1B690D4A43F001031361FB683A682C
:1010E0001A60BFF36F8F00BFD7E900014FF0000215
:1010F0004FF000030A000023F968043113460B6027
:1011000000BF1437BD465DF8047B7047003C0240C9
:1011100080B483B000AF786039600D4B1B690C4A16
:1011200023F4407313610A4B1B69094A43F40073AB
:101130001361074B1B69064A43F0010313617B6887
:101140003A681A6000BF0C37BD465DF8047B7047F3
:10115000003C024080B483B000AF78600B467B80D7
:101160000D4B1B690C4A23F4407313610A4B1B6936
:10117000094A43F480731361074B1B69064A43F025
:10118000010313617B687A881A8000BF0C37BD4663
:101190005DF8047B704700BF003C024080B483B020
:1011A00000AF78600B46FB700C4B1B690B4A23F4B5
:1011B00040731361094B094A1B691361074B1B6993
:1011C000064A43F0010313617B68FA781A7000BF86
:1011D0000C37BD465DF8047B704700BF003C024001
:1011E00080B400AF2F4BDB6803F01003002B08D056
:1011F0002D4BDB6943F010032B4AD361294B10229E
:10120000DA60284BDB6803F02003002B08D0264B64
:10121000DB6943F00803244AD361224B2022DA60C1
:10122000204BDB6803F04003002B08D01E4BDB692A
:1012300043F004031C4AD3611A4B4022DA60194B75
:10124000DB6803F08003002B08D0174BDB6943F009
:101250000203154AD361134B8022DA60114BDB681D
:1012600003F48073002B09D00F4BDB6943F00103BB
:101270000D4AD3610B4B4FF48072DA60094BDB6887
:1012800003F00203002B08D0074BDB6943F0200377
:10129000054AD361034B0222DA6000BFBD465DF808
:1012A000047B7047003C02400001002080B584B000
:1012B00000AF786039600123FB730023BB60314BC2
:1012C0001B7E012B01D1022358E02E4B01221A76FE
:1012D0004CF25030FFF7AAFE0346FB73FB7B002B5A
:1012E00048D13B684FF0FF321A607B681B68012BC6
:1012F00015D17B681B69DAB27B685B6819461046BA
:1013000000F044F84CF25030FFF790FE0346FB73B8
:101310001D4B1B691C4A23F00403136128E07B6802
:101320009B68BB601CE07B681B69DBB21946B86830
:1013300000F050F84CF25030FFF778FE0346FB7394
:10134000114B1B69104A23F0FA031361FB7B002B3E
:1013500003D03B68BA681A600AE0BB680133BB601F
:101360007B68DA687B689B681344BA689A42DAD370
:1013700000F078F8034B00221A76FB7B18461037F2
:10138000BD4680BD00010020003C024080B483B017
:1013900000AF03463960FB710D4B1B690C4A23F407
:1013A000407313610A4B1B69094A43F0040313613C
:1013B000074B1A69FB791B021343054A43F4803338
:1013C000136100BF0C37BD465DF8047B704700BF5A
:1013D000003C024080B485B000AF78600B46FB70E3
:1013E0000023FB60FB78002B02D10023FB6010E0A0
:1013F000FB78012B03D14FF48073FB6009E0FB788D
:10140000022B03D14FF40073FB6002E04FF44073F2
:10141000FB60134B1B69124A23F440731361104B9A
:101420001A690F49FB6813430B610D4B1B690C4A8A
:1014300023F0F80313610A4B1A697B68DB0013433E
:10144000074A43F002031361054B1B69044A43F446
:101450008033136100BF1437BD465DF8047B7047CD
:10146000003C024080B400AF204B1B6803F40073C3
:10147000002B17D01D4B1B681C4A23F4007313600C
:101480001A4B1B68194A43F400631360174B1B681F
:10149000164A23F400631360144B1B68134A43F489
:1014A00000731360114B1B6803F48063002B17D08B
:1014B0000E4B1B680D4A23F4806313600B4B1B68B3
:1014C0000A4A43F480531360084B1B68074A23F40D
:1014D00080531360054B1B68044A43F48063136018
:1014E00000BFBD465DF8047B704700BF003C024072
:1014F00080B489B000AF7860396000237B6100233D
:101500003B610023BB610023FB6165E10122FB69B4
:1015100002FA03F37B613B681B687A6913403B6105
:101520003A697B699A4240F054813B685B6803F0FA
:101530000303012B05D03B685B6803F00303022B18
:1015400030D17B689B68BB61FB695B00032202FAB8
:1015500003F3DB43BA691340BB613B68DA68FB699C
:101560005B0002FA03F3BA691343BB617B68BA6993
:101570009A607B685B68BB610122FB6902FA03F336
:10158000DB43BA691340BB613B685B681B0903F02E
:101590000102FB6902FA03F3BA691343BB617B687A
:1015A000BA695A603B685B6803F00303032B17D0EA
:1015B0007B68DB68BB61FB695B00032202FA03F313
:1015C000DB43BA691340BB613B689A68FB695B0007
:1015D00002FA03F3BA691343BB617B68BA69DA6044
:1015E0003B685B6803F00303022B23D1FB69DA0835
:1015F0007B68083253F82230BB61FB6903F00703B4
:101600009B000F2202FA03F3DB43BA691340BB616C
:101610003B681A69FB6903F007039B0002FA03F3B6
:10162000BA691343BB61FB69DA087B680832B969A0
:1016300043F822107B681B68BB61FB695B000322D7
:1016400002FA03F3DB43BA691340BB613B685B6892
:1016500003F00302FB695B0002FA03F3BA69134368
:10166000BB617B68BA691A603B685B6803F440330E
:10167000002B00F0AE800023FB605D4B5B6C5C4A8E
:1016800043F4804353645A4B5B6C03F48043FB6028
:10169000FB68584AFB699B08023352F82330BB6150
:1016A000FB6903F003039B000F2202FA03F3DB4301
:1016B000BA691340BB617B684F4A934225D07B686F
:1016C0004E4A93421FD07B684D4A934219D07B68A3
:1016D0004C4A934213D07B684B4A93420DD07B68AF
:1016E0004A4A934207D07B68494A934201D1062374
:1016F0000CE007230AE0052308E0042306E00323A7
:1017000004E0022302E0012300E00023FA6902F072
:10171000030292009340BA691343BB613549FB69E8
:101720009B080233BA6941F823203A4B9B68BB619E
:101730003B69DB43BA691340BB613B685B6803F4F8
:101740008013002B03D0BA693B691343BB61314A54
:10175000BB6993602F4BDB68BB613B69DB43BA69B4
:101760001340BB613B685B6803F40013002B03D09C
:10177000BA693B691343BB61264ABB69D360254BF9
:101780005B68BB613B69DB43BA691340BB613B6883
:101790005B6803F40033002B03D0BA693B69134341
:1017A000BB611C4ABB6953601A4B1B68BB613B6938
:1017B000DB43BA691340BB613B685B6803F4803369
:1017C000002B03D0BA693B691343BB61114ABB6963
:1017D0001360FB690133FB61FB690F2B7FF696AE4B
:1017E00000BF00BF2437BD465DF8047B704700BFD3
:1017F000003802400038014000000240000402406E
:1018000000080240000C0240001002400014024098
:1018100000180240003C014080B487B000AF7860FF
:10182000396000233B610023FB600023BB60002381
:101830007B61C7E001227B6902FA03F33B613A68EE
:101840003B691340FB60FA683B699A4240F0B780FD
:10185000624A7B699B08023352F82330BB607B6984
:1018600003F003039B000F2202FA03F3BA6813404C
:10187000BB607B685A4A934225D07B68594A9342A1
:101880001FD07B68584A934219D07B68574A9342CD
:1018900013D07B68564A93420DD07B68554A9342D9
:1018A00007D07B68544A934201D106230CE00723FA
:1018B0000AE0052308E0042306E0032304E00223F2
:1018C00002E0012300E000237A6902F003029200A3
:1018D0009340BA689A4232D1484B1A68FB68DB439E
:1018E000464913400B60454B5A68FB68DB4343494C
:1018F00013404B60414BDA68FB68DB433F491340C0
:10190000CB603E4B9A68FB68DB433C4913408B60DD
:101910007B6903F003039B000F2202FA03F3BB6011
:101920002E4A7B699B08023352F82310BB68DA43C6
:101930002A487B699B080A40023340F823207B68D1
:101940001A687B695B00032101FA03F3DB431A4049
:101950007B681A607B69DA087B68083253F82210CA
:101960007B6903F007039B000F2202FA03F3DB43BA
:101970007A69D20819407B68083243F822107B68E4
:10198000DA687B695B00032101FA03F3DB431A4049
:101990007B68DA607B685A6801217B6901FA03F38E
:1019A000DB431A407B685A607B689A687B695B00FE
:1019B000032101FA03F3DB431A407B689A607B69D9
:1019C00001337B617B690F2B7FF634AF00BF00BF13
:1019D0001C37BD465DF8047B704700BF00380140EE
:1019E000000002400004024000080240000C0240D7
:1019F000001002400014024000180240003C014068
:101A000080B483B000AF78600B467B8013467B7058
:101A10007B78002B03D07A887B689A6103E07B880F
:101A20001A047B689A6100BF0C37BD465DF8047BE1
:101A30007047F0B58FB00AAF78607B68002B01D19A
:101A4000012354E07B681B68FB607B6893F8F932E4
:101A5000DBB2002B06D17B68002283F8F82278687D
:101A600009F046FF7B68032283F8F922FB68DB6BF1
:101A700003F48073002B02D17B6800221A617B681B
:101A80001B68184603F00EF97B681B683B607E6894
:101A90006D4606F110040FCC0FC50FCC0FC594E8AE
:101AA000030085E80300331D0ECB386803F088F887
:101AB0007B681B680121184603F005F97B681B68E9
:101AC0003B607E686D4606F110040FCC0FC50FCC4D
:101AD0000FC594E8030085E80300331D0ECB38687A
:101AE00003F08EFA7B68012283F8F922002318465E
:101AF0001437BD46F0BD90B589B004AF7860084694
:101B000011461A460346FB700B46BB7013467B70AA
:101B10007B6893F8F832012B01D1022376E07B68D1
:101B2000012283F8F822FB787A682C2101FB03F369
:101B300013443D3300221A70FB787A682C2101FB94
:101B400003F3134438337A781A70FB787A682C21BF
:101B500001FB03F3134440333A8D1A80FB787A6813
:101B60002C2101FB03F313443933FA781A70FB7804
:101B70007A682C2101FB03F313443F3397F82420A8
:101B80001A70FB78BA7802F07F02D0B27A682C2102
:101B900001FB03F313443A3302461A7097F90230FB
:101BA000002B09DAFB787A682C2101FB03F313443C
:101BB0003B3301221A7008E0FB787A682C2101FB84
:101BC00003F313443B3300221A70FB787A682C210C
:101BD00001FB03F313443C3397F820201A707B6811
:101BE00018687C78BA78F9783B8D029397F824309E
:101BF000019397F820300093234603F07BFB0346C4
:101C0000FB737B68002283F8F822FB7B18461437AD
:101C1000BD4690BD80B584B000AF78600B46FB70C8
:101C20000023FB737B6893F8F832012B01D1022368
:101C30000FE07B68012283F8F8227B681B68FA7842
:101C40001146184603F0CBFD7B68002283F8F8228A
:101C5000FB7B18461037BD4680BD80B582B000AF13
:101C600078607B68002B01D1012310E07B680322A0
:101C700083F8F922786809F0B1FE7B681B68184682
:101C800003F010F87B68002283F8F922002318463D
:101C90000837BD4680BD000080B582B000AF7860D7
:101CA000084611461A460346FB700B46BB701346A6
:101CB0007B70FB787A682C2101FB03F313443B33E0
:101CC000BA781A70FB787A682C2101FB03F313446D
:101CD0003F337A781A703B7C002B12D1FB787A68FC
:101CE0002C2101FB03F31344423303221A70FB78C7
:101CF0007A682C2101FB03F313443D333A7F1A70B9
:101D000008E0FB787A682C2101FB03F3134442338B
:101D100002221A707B78032B00F2C68001A252F8CF
:101D200023F000BF351D0008951E0008991D00080E
:101D3000171E00083B7C012B40F0B880BB78002BBD
:101D400040F0B4803B8B002B08D1FB787A682C21C3
:101D500001FB03F31344553301221A70FB787A68B0
:101D60002C2101FB03F3134455331B78002B09D1BD
:101D7000FB787A682C2101FB03F3134442330022E1
:101D80001A7093E0FB787A682C2101FB03F313446B
:101D9000423302221A7089E0BB78002B1DD1FB78F8
:101DA0007A682C2101FB03F3134455331B78002B75
:101DB00009D1FB787A682C2101FB03F313444233E9
:101DC00000221A7073E0FB787A682C2101FB03F380
:101DD0001344423302221A7069E0FB787A682C219E
:101DE00001FB03F3134454331B78002B09D1FB7818
:101DF0007A682C2101FB03F31344423300221A704A
:101E000055E0FB787A682C2101FB03F3134442333D
:101E100002221A704BE0BB78002B1DD1FB787A6848
:101E20002C2101FB03F3134455331B78002B09D1FC
:101E3000FB787A682C2101FB03F313444233002220
:101E40001A7034E0FB787A682C2101FB03F3134409
:101E5000423302221A702AE0FB787A682C2101FBB7
:101E600003F3134454331B78002B09D1FB787A68B1
:101E70002C2101FB03F31344423300221A7016E0B5
:101E8000FB787A682C2101FB03F3134442330222CE
:101E90001A700CE0FB787A682C2101FB03F31344E1
:101EA000423300221A7002E000BF00E000BFFB785E
:101EB0007A682C2101FB03F3134444337A691A60D6
:101EC000FB783A8B79682C2000FB03F30B444C33EE
:101ED0001A60FB787A682C2101FB03F3134460330A
:101EE00000221A70FB787A682C2101FB03F313445B
:101EF000503300221A60FB787A682C2101FB03F32F
:101F000013443933FA781A70FB787A682C2101FB74
:101F100003F31344613300221A707B681868FB785E
:101F20002C2202FB03F338337A68D1187B681B69D3
:101F3000DBB21A4603F000FB034618460837BD46DD
:101F400080BD00BF80B586B000AF78607B681B683D
:101F50003B613B69FB607B681B68184603F00DF82A
:101F60000346012B40F0F6807B681B68184602F0A0
:101F7000F1FF0346002B00F0EC807B681B681846DD
:101F800002F0E8FF034603F40013B3F5001F04D189
:101F90007B681B684FF400125A617B681B68184607
:101FA00002F0D8FF034603F48013B3F5801F04D179
:101FB0007B681B684FF480125A617B681B68184667
:101FC00002F0C8FF034603F08063B3F1806F04D1D1
:101FD0007B681B684FF080625A617B681B681846FB
:101FE00002F0B8FF034603F00203022B03D17B6823
:101FF0001B6802225A617B681B68184602F0AAFF20
:10200000034603F00053B3F1005F1CD17B681B68EB
:102010004FF000525A61FB6803F588631B6803F0B8
:102020000103002B0FD11021386902F099FE3869A5
:1020300002F0CAFE7B681B680121184603F094F881
:10204000786809F007FD7B681B68184602F082FF7C
:10205000034603F08073B3F1807F02D1786801F00A
:102060009EF87B681B68184602F074FF034603F075
:102070000803082B06D1786809F0D0FC7B681B6840
:1020800008225A617B681B68184602F063FF03460A
:1020900003F01003102B01D1012300E00023002BDB
:1020A00012D07B681B689A697B681B6822F010025B
:1020B0009A61786800F0A1FF7B681B689A697B6869
:1020C0001B6842F010029A617B681B68184602F098
:1020D00041FF034603F00073B3F1007F3AD17B6800
:1020E0001B68184603F06AFBB86000237B6125E09B
:1020F0007B6903F00F03BA6822FA03F303F00103CC
:10210000002B18D07B695A01FB68134403F5A063C8
:102110001B6803F40043B3F5004F06D17B69DBB2C3
:102120001946786800F0ABF805E07B69DBB2194628
:10213000786800F0F9FB7B6901337B617B689B6801
:102140007A699A42D4D37B681B684FF000725A6157
:1021500000E000BF1837BD4680BD80B582B000AF3B
:1021600078607B6893F8F832012B01D1022313E0E9
:102170007B68012283F8F8227B681B6801211846DE
:1021800003F056F87B681B68184602F07AFD7B68FE
:10219000002283F8F822002318460837BD4680BD88
:1021A00080B582B000AF78607B6893F8F832012B7D
:1021B00001D102230DE07B68012283F8F8227B68BD
:1021C0001B68184603F044FC7B68002283F8F82261
:1021D000002318460837BD4680BD80B582B000AFE9
:1021E00078607B681B68184602F0F8FF03461846C3
:1021F0000837BD4680BD80B483B000AF78600B4621
:10220000FB70FB787A682C2101FB03F313446033E5
:102210001B7818460C37BD465DF8047B704780B4C8
:1022200083B000AF78600B46FB70FB787A682C2196
:1022300001FB03F3134450331B6818460C37BD46AB
:102240005DF8047B704780B582B000AF78607B6832
:102250001B68184603F03CF8034618460837BD468D
:1022600080BD80B582B000AF78607B681B6818467F
:1022700003F017F8034618460837BD4680BD80B501
:1022800086B000AF78600B46FB707B681B687B6193
:102290007B693B61FB78FB60FB685A013B69134437
:1022A00003F5A0639B6803F00403042B1AD1FB68B9
:1022B0005A013B69134403F5A0631A460423936053
:1022C0007A68FB682C2101FB03F313446133062277
:1022D0001A707B681B68FA68D2B21146184603F080
:1022E0007EFAAFE0FB685A013B69134403F5A06333
:1022F0009B6803F48073B3F5807F1BD1FB685A01A0
:102300003B69134403F5A0631A464FF4807393604E
:102310007A68FB682C2101FB03F313446133072225
:102320001A707B681B68FA68D2B21146184603F02F
:1023300056FA87E0FB685A013B69134403F5A06332
:102340009B6803F02003202B09D1FB685A013B69ED
:10235000134403F5A0631A462023936072E0FB68E0
:102360005A013B69134403F5A0639B6803F008031B
:10237000082B1AD1FB685A013B69134403F5A0638B
:102380001A46082393607A68FB682C2101FB03F34B
:102390001344613305221A707B681B68FA68D2B255
:1023A0001146184603F01BFA4CE0FB685A013B69E2
:1023B000134403F5A0639B6803F48063B3F5806F57
:1023C0001BD1FB685A013B69134403F5A0631A460D
:1023D0004FF4806393607A68FB682C2101FB03F360
:1023E0001344613308221A707B681B68FA68D2B202
:1023F0001146184603F0F3F924E0FB685A013B69E3
:10240000134403F5A0639B6803F08003802B19D16C
:10241000FB685A013B69134403F5A0631A46802305
:1024200093607A68FB682C2101FB03F3134461334A
:1024300006221A707B681B68FA68D2B211461846E9
:1024400003F0CDF9FB685A013B69134403F5A0631F
:102450009B6803F40073B3F5007F12D17B681B689F
:10246000FA68D2B21146184603F0B9F9FB685A016E
:102470003B69134403F5A0631A464FF4007393605D
:102480004EE2FB685A013B69134403F5A0639B6865
:1024900003F00103012B40F0DF807B681B69002BF8
:1024A00019D07A68FB682C2101FB03F313444833ED
:1024B0001A68FB6859013B690B4403F5A0631B696B
:1024C000C3F31203D21A7968FB682C2000FB03F3D4
:1024D0000B4450331A607A68FB682C2101FB03F32C
:1024E0001344613301221A707A68FB682C2101FBC6
:1024F00003F313445C3300221A60FB685A013B6902
:10250000134403F5A0631A46012393607A68FB68BD
:102510002C2101FB03F313443F331B78002B09D01C
:102520007A68FB682C2101FB03F313443F331B78CB
:10253000022B11D17B681B68FA68D2B2114618468B
:1025400003F04DF9FB685A013B69134403F5A0639E
:102550001A46102393603AE07A68FB682C2101FB4D
:1025600003F313443F331B78032B09D07A68FB68CD
:102570002C2101FB03F313443F331B78012B26D19D
:10258000FB685A013B69134403F5A0631B68FA68B2
:1025900051013A690A4402F5A06243F00053136006
:1025A0007A68FB682C2101FB03F31344603301229A
:1025B0001A70FB68D9B27A68FB682C2000FB03F321
:1025C000134460331B781A46786809F051FA7B6827
:1025D0001B69012B2BD17A68FB682C2101FB03F3CB
:1025E000134448331B687968FA682C2000FB02F218
:1025F0000A4440321288B3FBF2F303F00103002BCC
:1026000000F08E817A68FB682C2101FB03F31344F0
:1026100054331B7883F00103D8B27A68FB682C210D
:1026200001FB03F31344543302461A7078E17A68CD
:10263000FB682C2101FB03F3134454331B7883F014
:102640000103D8B27A68FB682C2101FB03F3134421
:10265000543302461A7063E1FB685A013B69134424
:1026600003F5A0639B6803F00203022B40F0F680A1
:102670007A68FB682C2101FB03F3134461331B7858
:10268000012B09D17A68FB682C2101FB03F3134469
:10269000603301221A70C9E07A68FB682C2101FBC3
:1026A00003F3134461331B78052B09D17A68FB6867
:1026B0002C2101FB03F31344603305221A70B5E0AB
:1026C0007A68FB682C2101FB03F3134461331B7808
:1026D000062B09D07A68FB682C2101FB03F3134415
:1026E00061331B78082B50D17A68FB682C2101FBE1
:1026F00003F313445C331B685A1C7968FB682C2075
:1027000000FB03F30B445C331A607A68FB682C21EE
:1027100001FB03F313445C331B68022B12D97A6864
:10272000FB682C2101FB03F313445C3300221A6085
:102730007A68FB682C2101FB03F313446033042205
:102740001A7073E07A68FB682C2101FB03F31344D1
:10275000603302221A70FB685A013B69134403F587
:10276000A0631B68BB60BB6823F08043BB60BB6891
:1027700043F00043BB60FB685A013B69134403F517
:10278000A0631A46BB68136050E07A68FB682C218E
:1027900001FB03F3134461331B78032B22D17A68C6
:1027A000FB682C2101FB03F31344603302221A70EF
:1027B000FB685A013B69134403F5A0631B68BB60C7
:1027C000BB6823F08043BB60BB6843F00043BB6041
:1027D000FB685A013B69134403F5A0631A46BB68C2
:1027E000136023E07A68FB682C2101FB03F3134498
:1027F00061331B78072B19D17A68FB682C2101FB08
:1028000003F313445C331B685A1C7968FB682C2063
:1028100000FB03F30B445C331A607A68FB682C21DD
:1028200001FB03F31344603304221A70FB685A015E
:102830003B69134403F5A0631A4602239360FB68C7
:10284000D9B27A68FB682C2000FB03F31344603391
:102850001B781A46786809F00BF961E0FB685A01A9
:102860003B69134403F5A0639B6803F01003102B2E
:1028700056D17A68FB682C2101FB03F313443F33E4
:102880001B78032B11D17A68FB682C2101FB03F321
:1028900013445C3300221A607B681B68FA68D2B26A
:1028A0001146184602F09BFF31E07A68FB682C2144
:1028B00001FB03F313443F331B78002B09D07A68E4
:1028C000FB682C2101FB03F313443F331B78022BDD
:1028D0001DD17A68FB682C2101FB03F313445C33A0
:1028E00000221A607B681B69002B10D17A68FB6894
:1028F0002C2101FB03F31344613303221A707B681C
:102900001B68FA68D2B21146184602F068FFFB68ED
:102910005A013B69134403F5A0631A4610239360E0
:1029200000BF1837BD4680BD80B588B000AF786065
:102930000B46FB707B681B68FB61FB69BB61FB7826
:102940007B617B695A01BB69134403F5A0639B68F3
:1029500003F00403042B1AD17B695A01BB691344A9
:1029600003F5A0631A46042393607A687B692C21DF
:1029700001FB03F31344613306221A707B681B6862
:102980007A69D2B21146184602F029FF31E37B6919
:102990005A01BB69134403F5A0639B6803F020034D
:1029A000202B2ED17B695A01BB69134403F5A06328
:1029B0001A46202393607A687B692C2101FB03F37C
:1029C00013443D331B78012B40F013837A687B69F5
:1029D0002C2101FB03F313443D3300221A707A6863
:1029E0007B692C2101FB03F31344603302221A702C
:1029F0007B681B687A69D2B21146184602F0EFFE76
:102A0000F7E27B695A01BB69134403F5A0639B6835
:102A100003F40073B3F5007F12D17B695A01BB69DF
:102A2000134403F5A0631A464FF4007393607B6868
:102A30001B687A69D2B21146184602F0D0FED8E27D
:102A40007B695A01BB69134403F5A0639B6803F0DB
:102A50000103012B40D17A687B692C2101FB03F330
:102A600013445C3300221A607B695A01BB6913442A
:102A700003F5A0639B6803F04003402B11D17A68F3
:102A80007B692C2101FB03F313443D3301221A70AF
:102A90007B695A01BB69134403F5A0631A464023BE
:102AA00093607B695A01BB69134403F5A0631A461E
:102AB000012393607A687B692C2101FB03F31344A3
:102AC000613301221A707B681B687A69D2B21146A1
:102AD000184602F084FE8CE27B695A01BB691344FC
:102AE00003F5A0639B6803F04003402B2CD17A6868
:102AF0007B692C2101FB03F31344613304221A7018
:102B00007A687B692C2101FB03F313443D330122D6
:102B10001A707A687B692C2101FB03F313445C3340
:102B200000221A607B681B687A69D2B21146184687
:102B300002F055FE7B695A01BB69134403F5A0639B
:102B40001A464023936054E27B695A01BB691344DF
:102B500003F5A0639B6803F00803082B1AD17B6977
:102B60005A01BB69134403F5A0631A460823936016
:102B70007A687B692C2101FB03F31344613305223E
:102B80001A707B681B687A69D2B21146184602F047
:102B900026FE2EE27B695A01BB69134403F5A0634C
:102BA0009B6803F01003102B40D17A687B692C21BD
:102BB00001FB03F313445C3300221A607A687B69DB
:102BC0002C2101FB03F31344613303221A707A684A
:102BD0007B692C2101FB03F313443D331B78002B4D
:102BE00012D17A687B692C2101FB03F313443C3337
:102BF0001B78002B08D17A687B692C2101FB03F339
:102C000013443D3301221A707B681B687A69D2B283
:102C10001146184602F0E3FD7B695A01BB69134473
:102C200003F5A0631A4610239360E2E17B695A0121
:102C3000BB69134403F5A0639B6803F08003802BFA
:102C400064D17B681B69002B11D17A687B692C21C8
:102C500001FB03F31344613306221A707B681B687F
:102C60007A69D2B21146184602F0B9FD44E07A689A
:102C70007B692C2101FB03F313445C331B685A1C52
:102C800079687B692C2000FB03F30B445C331A60EA
:102C90007A687B692C2101FB03F313445C331B68C6
:102CA000022B20D97A687B692C2101FB03F31344A2
:102CB0005C3300221A607A687B692C2101FB03F3E4
:102CC0001344603304221A707B69D9B27A687B6935
:102CD0002C2000FB03F3134460331B781A467868FA
:102CE00008F0C6FE08E07A687B692C2101FB03F33B
:102CF0001344603302221A707B695A01BB69134482
:102D000003F5A0631A468023936072E17B695A0140
:102D1000BB69134403F5A0639B6803F48063B3F5B8
:102D2000806F1BD17A687B692C2101FB03F313446C
:102D3000613308221A707B681B687A69D2B2114627
:102D4000184602F04CFD7B695A01BB69134403F538
:102D5000A0631A464FF4806393604AE17B695A018D
:102D6000BB69134403F5A0639B6803F00203022BC5
:102D700040F03F817A687B692C2101FB03F3134407
:102D800061331B78012B7DD17A687B692C2101FB93
:102D900003F31344603301221A707A687B692C2193
:102DA00001FB03F313443F331B78022B0AD07A68EC
:102DB0007B692C2101FB03F313443F331B78032B66
:102DC00040F000817B681B69002B13D17A687B6916
:102DD0002C2101FB03F3134455331B7883F00103CB
:102DE000D8B27A687B692C2101FB03F31344553375
:102DF00002461A707B681B69012B40F0E3807A68F9
:102E00007B692C2101FB03F313444C331B68002B1B
:102E100000F0D8807A687B692C2101FB03F313440E
:102E20004C331B6879687A692C2000FB02F20A4453
:102E3000403212881344013B79687A692C2000FBE8
:102E400002F20A4440321288B3FBF2F3FB60FB68E3
:102E500003F00103002B00F0B5807A687B692C2118
:102E600001FB03F3134455331B7883F00103D8B2FD
:102E70007A687B692C2101FB03F313445533024626
:102E80001A709FE07A687B692C2101FB03F31344DD
:102E900061331B78032B09D17A687B692C2101FBF4
:102EA00003F31344603302221A708BE07A687B6963
:102EB0002C2101FB03F3134461331B78042B09D14C
:102EC0007A687B692C2101FB03F3134460330222EF
:102ED0001A7077E07A687B692C2101FB03F31344B5
:102EE00061331B78052B09D17A687B692C2101FBA2
:102EF00003F31344603305221A7063E07A687B6938
:102F00002C2101FB03F3134461331B78062B09D0FA
:102F10007A687B692C2101FB03F3134461331B782E
:102F2000082B4FD17A687B692C2101FB03F31344F2
:102F30005C331B685A1C79687B692C2000FB03F307
:102F40000B445C331A607A687B692C2101FB03F324
:102F500013445C331B68022B12D97A687B692C21DD
:102F600001FB03F313445C3300221A607A687B6927
:102F70002C2101FB03F31344603304221A7021E077
:102F80007A687B692C2101FB03F31344603302222E
:102F90001A707B695A01BB69134403F5A0631B686F
:102FA0003B613B6923F080433B613B6943F0004355
:102FB0003B617B695A01BB69134403F5A0631A4660
:102FC0003B6913607B695A01BB69134403F5A06335
:102FD0001A46022393607B69D9B27A687B692C20F8
:102FE00000FB03F3134460331B781A46786808F03B
:102FF0003FFD00BF2037BD4680BD80B58AB000AF21
:1030000078607B681B687B627B6A3B627B681B68BD
:103010001B6AFB61FB6903F00F03BB61FB695B0C7F
:1030200003F00F037B61FB691B09C3F30A033B61D8
:103030007B69022B04D07B69052B00F0A980AAE0F4
:103040003B69002B00F0A6807A68BB692C2101FB4C
:1030500003F3134444331B68002B00F09B807A6811
:10306000BB692C2101FB03F3134450331A683B69FD
:103070001A447968BB692C2000FB03F30B444C33E2
:103080001B689A427AD87B6818687A68BB692C21D9
:1030900001FB03F3134444331B683A6992B21946A7
:1030A00001F000FF7A68BB692C2101FB03F3134494
:1030B00044331A683B691A447968BB692C2000FBC9
:1030C00003F30B4444331A607A68BB692C2101FB7B
:1030D00003F3134450331A683B691A447968BB6997
:1030E0002C2000FB03F30B4450331A60BB695A01D8
:1030F0003B6A134403F5A0631B69DB0CC3F30903AC
:10310000FB607A68BB692C2101FB03F31344403355
:103110001B881A463B6993423CD1FB68002B39D08F
:10312000BB695A013B6A134403F5A0631B68BB608B
:10313000BB6823F08043BB60BB6843F00043BB60C7
:10314000BB695A013B6A134403F5A0631A46BB6886
:1031500013607A68BB692C2101FB03F313445433D9
:103160001B7883F00103D8B27A68BB692C2101FB7C
:1031700003F31344543302461A700BE07A68BB69B8
:103180002C2101FB03F31344603304221A7001E085
:1031900000BF00E000BF00BF2837BD4680BD80B53E
:1031A00086B000AF78607B681B687B617B693B61A0
:1031B0003B6903F588631B68FB603B6903F5886323
:1031C0001B68BB60BB6823F02E03BB60FB6803F089
:1031D0000203022B0BD1FB6803F00103012B02D188
:1031E000786808F029FCBB6843F00203BB60FB6809
:1031F00003F00803082B32D1BB6843F00803BB601F
:10320000FB6803F00403042B26D17B689B69022B27
:1032100013D1FB6803F4C023B3F5802F06D17B687C
:103220001B680221184601F09FFF11E07B681B68B4
:103230000121184601F098FF0AE07B68DB68012B4A
:1032400006D13B6903F580631A464EF6602353604E
:10325000786808F01BFC02E0786808F025FCFB6841
:1032600003F02003202B03D1BB6843F02003BB6095
:103270003B6903F588631A46BB68136000BF1837C3
:10328000BD4680BD80B582B000AF00237B600023C7
:103290003B60204B1B6C1F4A43F0805313641D4B53
:1032A0001B6C03F080533B603B681B4B01221A6090
:1032B000FDF7B6FC786009E0FDF7B2FC02467B68DA
:1032C000D31AB3F57A7F01D903231FE0134B5B6850
:1032D00003F48033B3F5803FEED1114B01221A6025
:1032E000FDF79EFC786009E0FDF79AFC02467B68DA
:1032F000D31AB3F57A7F01D9032307E0074B5B6844
:1033000003F40033B3F5003FEED10023184608372D
:10331000BD4680BD0038024040000E4200700040B3
:1033200044000E4280B584B000AF786039607B689D
:10333000002B01D10123CCE0684B1B6803F00F0385
:103340003A689A420CD9654B3A68D2B21A70634B0C
:103350001B6803F00F033A689A4201D00123B8E0DA
:103360007B681B6803F00203002B20D07B681B687E
:1033700003F00403002B05D0594B9B68584A43F4D3
:10338000E05393607B681B6803F00803002B05D0B3
:10339000534B9B68524A43F460439360504B9B6885
:1033A00023F0F0027B689B684D4913438B607B6878
:1033B0001B6803F00103002B44D07B685B68012B82
:1033C00007D1474B1B6803F40033002B19D10123AD
:1033D0007FE07B685B68022B03D07B685B68032B14
:1033E00007D13F4B1B6803F00073002B09D1012369
:1033F0006FE03B4B1B6803F00203002B01D101235C
:1034000067E0374B9B6823F003027B685B683449B5
:1034100013438B60FDF704FCF8600AE0FDF700FC45
:103420000246FB68D31A41F28832934201D9032342
:103430004FE02B4B9B6803F00C027B685B689B00A2
:103440009A42EBD1254B1B6803F00F033A689A426E
:103450000CD2224B3A68D2B21A70204B1B6803F090
:103460000F033A689A4201D0012332E07B681B685F
:1034700003F00403002B08D0194B9B6823F4E0529F
:103480007B68DB68164913438B607B681B6803F01D
:103490000803002B09D0124B9B6823F460427B6821
:1034A0001B69DB000E4913438B6000F07FFB024673
:1034B0000B4B9B681B0903F00F030A49CB5C22FAF4
:1034C00003F3094A1360094B1B681846FDF764FBB8
:1034D000002318461037BD4680BD00BF003C0240A7
:1034E00000380240A0D600080000002004000020A0
:1034F00080B400AF034B1B681846BD465DF8047BE3
:10350000704700BF0000002080B500AFFFF7F0FF5C
:103510000246054B9B689B0A03F007030349CB5CFB
:1035200022FA03F3184680BD00380240B0D60008E6
:1035300080B500AFFFF7DCFF0246054B9B685B0BD5
:1035400003F007030349CB5C22FA03F3184680BD5E
:1035500000380240B0D6000880B58CB000AF78606B
:1035600000237B6200233B620023FB610023BB61DD
:1035700000237B6100233B610023FB600023FB628F
:103580000023BB627B681B6803F00103002B10D093
:103590006F4BD3F88C3023F0C0627B689B6B6C4917
:1035A0001343C1F88C307B689B6B002B01D1012346
:1035B000FB627B681B6803F00203002B10D0644B96
:1035C000D3F88C3023F0C0527B68DB6B6049134327
:1035D000C1F88C307B68DB6B002B01D10123FB62CF
:1035E0007B681B6803F00403002B17D0584BD3F8FB
:1035F0008C3023F440127B681B6B55491343C1F890
:103600008C307B681B6BB3F5801F01D10123FB62FB
:103610007B681B6B002B01D10123BB627B681B689D
:1036200003F00803002B17D0494BD3F88C3023F458
:1036300040027B685B6B46491343C1F88C307B6862
:103640005B6BB3F5800F01D10123FB627B685B6B81
:10365000002B01D10123BB627B681B6803F02003B0
:10366000002B00F08A800023BB60394B1B6C384A6A
:1036700043F080531364364B1B6C03F08053BB60E4
:10368000BB68344B1B68334A43F480731360FDF707
:10369000C7FA786208E0FDF7C3FA02467B6AD31ADC
:1036A000022B01D9032378E22A4B1B6803F48073B1
:1036B000002BF0D0264B1B6F03F440733B623B6A38
:1036C000002B2FD07B681B6C03F440733A6A9A423C
:1036D00028D01F4B1B6F23F440733B621E4B01220B
:1036E0001A601D4B00221A60194A3B6A1367184B77
:1036F0001B6F03F00103012B14D1FDF791FA7862DF
:103700000AE0FDF78DFA02467B6AD31A41F288324D
:10371000934201D9032340E20D4B1B6F03F00203D8
:10372000002BEED07B681B6C03F44073B3F5407F35
:1037300014D1074B9B6823F4F8127B681B6C23F0B1
:10374000704323F44073024913438B600CE000BFC5
:103750000038024000700040400E47424A4B9B68D0
:10376000494A23F4F8139360474B1A6F7B681B6C2C
:10377000C3F30B03444913430B677B681B6803F0D7
:103780001003002B04D07B6893F858203F4B1A603D
:103790007B681B6803F08003002B0AD03A4BD3F8F8
:1037A000943023F440027B68DB6C37491343C1F843
:1037B00094307B681B6803F04003002B0AD0324B27
:1037C000D3F8943023F080627B689B6C2E491343BE
:1037D000C1F894307B681B6803F48073002B11D010
:1037E000294BD3F8943023F000627B685B6D264947
:1037F0001343C1F894307B685B6DB3F1006F01D166
:103800000123BB627B681B6803F40073002B0AD0A2
:103810001D4BD3F8943023F080527B685B6C1A49BF
:103820001343C1F894307B681B6803F48063002B5A
:1038300011D0154BD3F8943023F000527B681B6DE8
:1038400011491343C1F894307B681B6DB3F1005FDD
:1038500001D10123FB62FB6A012B05D07B681B6849
:10386000B3F5006F40F0FF80094B00221A60FDF7AE
:10387000D7F978620EE0FDF7D3F902467B6AD31AD6
:10388000022B07D9032388E100380240E0114742A8
:10389000680047427E4B1B6803F00063002BEAD1AF
:1038A0007B681B6803F00103002B03D07B689B6BD4
:1038B000002B09D07B681B6803F00203002B28D083
:1038C0007B68DB6B002B24D1714BD3F884301B0C4D
:1038D00003F0030301335B00FB616D4BD3F88430CD
:1038E0001B0E03F00F03BB617B685A687B689B6803
:1038F0009B011A43FB695B08013B1B041A43BB692C
:103900001B061A437B685B691B0761491343C1F8B7
:1039100084307B681B6803F00403002B04D07B68B1
:103920001B6BB3F5801F0AD07B681B6803F008038C
:10393000002B35D07B685B6BB3F5800F30D1544BD7
:10394000D3F884301B0C03F0030301335B00FB61ED
:103950004F4BD3F884301B0F03F007037B617B6868
:103960005A687B689B689B011A43FB695B08013BB3
:103970001B041A437B681B691B061A437B691B07E0
:1039800043491343C1F88430414BD3F88C3023F0C2
:103990001F027B689B6A013B3D491343C1F88C3091
:1039A0007B681B6803F48063002B29D07B681B6D48
:1039B000B3F1005F24D1364BD3F884301B0C03F0F5
:1039C000030301335B00BB61314BD3F884301B0F21
:1039D00003F007037B617B685A687B689B689B01E7
:1039E0001A437B68DB685B08013B1B041A43BB6915
:1039F0001B061A437B691B0725491343C1F8843012
:103A00007B681B6803F40063002B16D07B685A6840
:103A10007B689B689B011A437B68DB685B08013B02
:103A20001B041A437B681B691B061A437B685B698E
:103A30001B0717491343C1F88430164B01221A6043
:103A4000FDF7EEF8786208E0FDF7EAF802467B6AD7
:103A5000D31A022B01D903239FE00D4B1B6803F0FF
:103A60000063002BF0D0BB6A012B40F095800A4B1D
:103A700000221A60FDF7D4F878620FE0FDF7D0F865
:103A800002467B6AD31A022B08D9032385E000BFC4
:103A9000003802406800474270004742414B1B68B3
:103AA00003F00053B3F1005FE8D07B681B6803F0BC
:103AB0000403002B03D07B681B6B002B09D07B68B1
:103AC0001B6803F00803002B2BD07B685B6B002B7B
:103AD00027D1344BD3F888301B0C03F00303013398
:103AE0005B003B617B689A697B68DB699B011A43D9
:103AF0003B695B08013B1B041A437B685B6A1B063E
:103B000028491343C1F88830264BD3F88C3023F46E
:103B1000F8527B68DB6A013B1B0222491343C1F860
:103B20008C307B681B6803F48073002B1DD07B688E
:103B30005B6DB3F1006F18D11A4BD3F888301B0EB0
:103B400003F00F03FB607B689A697B68DB699B016C
:103B50001A437B681B6A5B08013B1B041A43FB6822
:103B60001B0610491343C1F888300F4B01221A601D
:103B7000FDF756F8786208E0FDF752F802467B6AD6
:103B8000D31A022B01D9032307E0064B1B6803F06D
:103B90000053B3F1005FEFD1002318463037BD4624
:103BA00080BD00BF00380240700047422DE9B04F91
:103BB000A6B000AF0023C7F88C300023C7F89430BC
:103BC0000023C7F888300023C7F884300023C7F8E3
:103BD0009030C84B9B6803F00C030C2B00F27E81E5
:103BE00001A252F823F000BF1D3C0008DD3E000892
:103BF000DD3E0008DD3E0008253C0008DD3E0008F3
:103C0000DD3E0008DD3E00082D3C0008DD3E0008DA
:103C1000DD3E0008DD3E0008973D0008B64BC7F8C2
:103C200090305FE1B54BC7F890305BE1B14B5B681A
:103C300003F03F03C7F88C30AE4B5B6803F480039E
:103C4000002B31D0AB4B5B689B090022BB66FA6648
:103C5000BB6EC3F308033B6600237B66A74BD7E923
:103C600018452A4603FB02F20023214601FB03F319
:103C70001344A24A2146A1FB0212FA670A46BA6718
:103C8000FA6F1344FB67D7F88C300022BB65FA65E6
:103C9000D7E91623D7E91E01FCF70AFB02460B46BB
:103CA0001346C7F8943064E0924B5B689B0900228E
:103CB0003B657A653B6DC3F30803BB640023FB647B
:103CC000D7E9124522462B464FF000004FF0000185
:103CD000590141EAD261500102460B462146511A70
:103CE0003961294663EB01037B614FF000024FF01D
:103CF0000003D7E904AB59468B01514643EA91636F
:103D000051468A015146B2EB0108594663EB01095D
:103D10004FF000024FF000034FEAC90343EA587323
:103D20004FEAC80290469946234618EB0303BB604E
:103D30002B4649EB0303FB604FF000024FF00003FA
:103D4000D7E9024529468B02214643EA9153214691
:103D50008A0210461946D7F88C3000223B647A64F8
:103D6000D7E91023FCF7A4FA02460B461346C7F81E
:103D70009430604B5B681B0C03F0030301335B0062
:103D8000C7F88830D7F89420D7F88830B2FBF3F31F
:103D9000C7F89030A6E0574B5B6803F03F03C7F8C5
:103DA0008C30544B5B6803F48003002B2AD0514BBA
:103DB0005B689B090022BB63FA63BB6BC3F308001B
:103DC00000214E4B03FB01F2002300FB03F31344DD
:103DD0004A4AA0FB02127A670A463A677A6F13448E
:103DE0007B67D7F88C3000223B637A63D7E90C23DA
:103DF000D7E91C01FCF75CFA02460B461346C7F8EC
:103E000094305BE03B4B5B689B090022BB62FA622B
:103E1000BB6AC3F308033B6200237B62D7E90889CE
:103E200042464B464FF000004FF00001590141EA75
:103E3000D261500102460B464146B2EB010A4946A7
:103E400063EB010B4FF000024FF000034FEA8B13BE
:103E500043EA9A634FEA8A12B2EB0A0463EB0B055A
:103E60004FF000024FF00003EB0043EA5473E2000E
:103E700014461D464346E3183B604B4645EB03039F
:103E80007B604FF000024FF00003D7E90045294660
:103E90008B02214643EA915321468A021046194675
:103EA000D7F88C300022BB61FA61D7E90623FCF712
:103EB000FFF902460B461346C7F894300D4B5B687A
:103EC0001B0F03F00703C7F88430D7F89420D7F806
:103ED0008430B2FBF3F3C7F8903003E0064BC7F829
:103EE000903000BFD7F8903018469837BD46BDE8EF
:103EF000B08F00BF003802400024F400001BB70060
:103F000080B586B000AF78607B68002B01D10123BB
:103F10008DE27B681B6803F00103002B00F08380B7
:103F2000944B9B6803F00C03042B19D0914B9B68B6
:103F300003F00C03082B06D18E4B5B6803F480035F
:103F4000B3F5800F0CD08B4B9B6803F00C030C2B4C
:103F500012D1884B5B6803F48003B3F5800F0BD15B
:103F6000844B1B6803F40033002B5BD07B685B68D9
:103F7000002B57D101235AE27B685B68B3F5803F81
:103F800006D17C4B1B687B4A43F4803313601DE0F1
:103F90007B685B68B3F5A02F0CD1764B1B68754A24
:103FA00043F480231360734B1B68724A43F48033DD
:103FB00013600BE06F4B1B686E4A23F48033136071
:103FC0006C4B1B686B4A23F4802313607B685B682F
:103FD000002B13D0FCF724FE386108E0FCF720FE2C
:103FE00002463B69D31A642B01D903231FE2614BBC
:103FF0001B6803F40033002BF0D014E0FCF710FE34
:10400000386108E0FCF70CFE02463B69D31A642BCA
:1040100001D903230BE2574B1B6803F40033002B39
:10402000F0D100E000BF7B681B6803F00203002BA7
:104030006FD0504B9B6803F00C03002B17D04D4BF7
:104040009B6803F00C03082B05D14A4B5B6803F413
:104050008003002B0BD0474B9B6803F00C030C2B09
:104060001CD1444B5B6803F48003002B16D1414BF9
:104070001B6803F00203002B05D07B68DB68012B73
:1040800001D00123D3E13B4B1B6823F0F8027B688E
:104090001B69DB00374913430B603AE07B68DB6840
:1040A000002B20D0344B01221A60FCF7B9FD386197
:1040B00008E0FCF7B5FD02463B69D31A022B01D993
:1040C0000323B4E12B4B1B6803F00203002BF0D059
:1040D000284B1B6823F0F8027B681B69DB0025492D
:1040E00013430B6015E0244B00221A60FCF798FD87
:1040F000386108E0FCF794FD02463B69D31A022BB5
:1041000001D9032393E11B4B1B6803F00203002B2F
:10411000F0D17B681B6803F00803002B36D07B6866
:104120005B69002B16D0154B01221A60FCF778FD55
:10413000386108E0FCF774FD02463B69D31A022B94
:1041400001D9032373E10B4B5B6F03F00203002BD8
:10415000F0D01BE0094B00221A60FCF761FD3861CA
:104160000EE0FCF75DFD02463B69D31A022B07D92E
:1041700003235CE10038024000004742800E4742C2
:104180008A4B5B6F03F00203002BEAD17B681B684C
:1041900003F00403002B00F097800023FB75834B92
:1041A0001B6C03F08053002B0FD10023BB607F4BAF
:1041B0001B6C7E4A43F0805313647C4B1B6C03F0F2
:1041C0008053BB60BB680123FB75794B1B6803F40C
:1041D0008073002B18D1764B1B68754A43F48073AB
:1041E0001360FCF71DFD386108E0FCF719FD02467D
:1041F0003B69D31A022B01D9032318E16C4B1B68CE
:1042000003F48073002BF0D07B689B68012B06D1F0
:10421000664B1B6F654A43F0010313671CE07B6824
:104220009B68052B0CD1614B1B6F604A43F0040364
:1042300013675E4B1B6F5D4A43F0010313670BE08E
:104240005A4B1B6F594A23F001031367574B1B6FDF
:10425000564A23F0040313677B689B68002B15D034
:10426000FCF7DEFC38610AE0FCF7DAFC02463B6949
:10427000D31A41F28832934201D90323D7E04B4B42
:104280001B6F03F00203002BEED014E0FCF7C8FC18
:1042900038610AE0FCF7C4FC02463B69D31A41F2DC
:1042A0008832934201D90323C1E0404B1B6F03F0D6
:1042B0000203002BEED1FB7D012B05D13B4B1B6C88
:1042C0003A4A23F0805313647B689B69002B00F00B
:1042D000AD80364B9B6803F00C03082B60D07B68E5
:1042E0009B69022B45D1334B00221A60FCF798FCE6
:1042F000386108E0FCF794FC02463B69D31A022BB4
:1043000001D9032393E0294B1B6803F00073002BB2
:10431000F0D17B68DA697B681B6A1A437B685B6A49
:104320009B011A437B689B6A5B08013B1B041A4391
:104330007B68DB6A1B061A437B681B6B1B071B49E8
:1043400013434B601B4B01221A60FCF769FC386178
:1043500008E0FCF765FC02463B69D31A022B01D941
:10436000032364E0114B1B6803F00073002BF0D0B3
:104370005CE0104B00221A60FCF752FC386108E048
:10438000FCF74EFC02463B69D31A022B01D90323EA
:104390004DE0064B1B6803F00073002BF0D145E0A5
:1043A0007B689B69012B07D1012340E00038024064
:1043B00000700040600047421F4B5B68FB607B68F9
:1043C0009B69012B30D0FB6803F480027B68DB69BA
:1043D0009A4229D1FB6803F03F027B681B6A9A422C
:1043E00022D1FA6847F6C07313407A68526A920184
:1043F000934219D1FB6803F440327B689B6A5B08E7
:10440000013B1B049A420FD1FB6803F070627B688A
:10441000DB6A1B069A4207D1FB6803F0E0427B6827
:104420001B6B1B079A4201D0012300E000231846B2
:104430001837BD4680BD00BF0038024080B582B04D
:1044400000AF78607B68002B01D101233FE07B68DF
:1044500093F83D30DBB2002B06D17B68002283F855
:104460003C207868FCF704FB7B68242283F83D201D
:104470007B681B68DA687B681B6822F40052DA608C
:10448000786800F029F97B681B681A697B681B68EB
:1044900022F490421A617B681B685A697B681B682A
:1044A00022F02A025A617B681B68DA687B681B6805
:1044B00042F40052DA607B6800221A647B68202292
:1044C00083F83D207B68202283F83E200023184695
:1044D0000837BD4680BD80B58AB002AFF860B960CC
:1044E0003B601346FB8000237B61FB6893F83D3003
:1044F000DBB2202B7CD1BB68002B02D0FB88002BC9
:1045000001D1012375E0FB6893F83C30012B01D108
:1045100002236EE0FB68012283F83C20FB68002246
:104520001A64FB68212283F83D20FCF779FB78614F
:10453000FB68FA889A84FB68FA88DA84FB689B68CF
:10454000B3F5805F08D1FB681B69002B04D1002301
:10455000FB61BB68BB6103E0BB68FB610023BB611F
:10456000FB68002283F83C202AE03B6800937B69CB
:1045700000228021F86800F040F80346002B01D0AB
:10458000032336E0FB69002B0BD1BB691B881A465D
:10459000FB681B68C2F308025A60BB690233BB6147
:1045A00007E0FB691A78FB681B685A60FB690133F6
:1045B000FB61FB68DB8C9BB2013B9AB2FB68DA843F
:1045C000FB68DB8C9BB2002BCFD13B6800937B69EF
:1045D00000224021F86800F010F80346002B01D0BB
:1045E000032306E0FB68202283F83D20002300E03F
:1045F000022318462037BD4680BD80B590B000AF7D
:10460000F860B9603B601346FB7150E0BB6CB3F1DE
:10461000FF3F4CD0BB6C002B07D0FCF701FB0246E0
:104620003B68D31ABA6C9A4241D2FB681B680C33C0
:10463000BB62BB6A53E8003F7B627B6A23F4D073A2
:10464000FB63FB681B680C33FA6B7A633B63396B63
:104650007A6B41E80023FB62FB6A002BE5D1FB6823
:104660001B6814337B617B6953E8003F3B613B6906
:1046700023F00103BB63FB681B681433BA6B3A6217
:10468000FB61F9693A6A41E80023BB61BB69002B11
:10469000E5D1FB68202283F83D20FB68202283F8C7
:1046A0003E20FB68002283F83C2003230FE0FB68D8
:1046B0001B681A68BB681340BA689A420CBF012392
:1046C0000023DBB21A46FB799A429FD0002318469A
:1046D0004037BD4680BD00002DE9B04FC0B000AFEF
:1046E000C7F8F400D7F8F4301B681B6923F4405076
:1046F000D7F8F430D968D7F8F4301A6840EA0103E3
:104700001361D7F8F4309A68D7F8F4301B691A436C
:10471000D7F8F4305B691A43D7F8F430DB691343F8
:10472000C7F8F830D7F8F4301B68DB6823F416417B
:1047300021F00C01D7F8F4301A68D7F8F8300B43A1
:10474000D360D7F8F4301B685B6923F44070D7F866
:10475000F4309969D7F8F4301A6840EA01035361DC
:10476000D7F8F4301A688F4B9A4205D0D7F8F43056
:104770001A688D4B9A4204D1FEF7DAFEC7F8FC00A6
:1047800003E0FEF7C1FEC7F8FC00D7F8F430DB69A0
:10479000B3F5004F40F00C81D7F8FC300022C7F889
:1047A000E830C7F8EC20D7E93A4522462B46911865
:1047B000B9655B41FB65D7E91623214612EB010879
:1047C000294643EB01094FF000024FF000034FEA86
:1047D000C90343EA58734FEAC802904699462346F4
:1047E00018EB0303C7F8E0302B4649EB0303C7F887
:1047F000E430D7F8F4305B680022C7F8D830C7F847
:10480000DC20D7E936120B46DB183B65134642EB3A
:1048100003037B65D7E91423D7E93801FBF748FD8B
:1048200002460B46614BA3FB02235B091C01D7F830
:10483000FC300022C7F8D030C7F8D420D7E934893B
:1048400042464B469118B9645B41FB64D7E9122399
:10485000414612EB010A494643EB010B4FF00002BF
:104860004FF000034FEACB0343EA5A734FEACA0200
:1048700092469B4643461AEB0303C7F8C8304B46A3
:104880004BEB0303C7F8CC30D7F8F4305B68002259
:10489000C7F8C030C7F8C420D7E930120B46DB1880
:1048A0003B64134642EB03037B64D7E91023D7E94B
:1048B0003201FBF7FDFC02460B4611463B4BA3FBC6
:1048C00001235B09642202FB03F3CB1ADB0003F133
:1048D0003202364BA3FB02235B095B0003F4F8733F
:1048E0001C44D7F8FC300022C7F8B830C7F8BC2009
:1048F000D7E92E8942464B469118B9635B41FB6369
:10490000D7E90E2341465118396349464B417B6331
:104910004FF000024FF00003D7E90CAB5946CB0033
:10492000514643EA51735146CA00104619460346A0
:1049300042469B18C7F8B0304B460A4642EB030389
:10494000C7F8B430D7F8F4305B680022C7F8A83055
:10495000C7F8AC20D7E92A120B46DB18BB62134616
:1049600042EB0303FB62D7E90A23D7E92C01FBF7EB
:104970009FFC02460B460D4BA3FB02135B0964210F
:1049800001FB03F3D31ADB003233084AA2FB0323F3
:104990005B0903F00702D7F8F4301B6822449A60E1
:1049A00005E100BF00100140001401401F85EB51DC
:1049B000D7F8FC300022C7F8A030C7F8A420D7E908
:1049C000288942464B46911839625B417B62D7E9A0
:1049D000082341465418494643EB01054FF00002B5
:1049E0004FF00003EB0043EA5473E20014461D4607
:1049F0004346E318C7F898304B4645EB0303C7F826
:104A00009C30D7F8F4305B680022C7F89030C7F8C4
:104A100094204FF000024FF00003D7E924452946C7
:104A20008B00214643EA917321468A00D7E926018B
:104A3000FBF73EFC02460B46604BA3FB02235B09DF
:104A40001C01D7F8FC300022C7F88830C7F88C204A
:104A5000D7E9228942464B469118B9615B41FB6117
:104A6000D7E9062341465118396149464B417B61DC
:104A70004FF000024FF00003D7E904AB5946CB00DA
:104A8000514643EA51735146CA001046194603463F
:104A900042469B18C7F880304B460A4642EB030358
:104AA000C7F88430D7F8F4305B680022BB67FA6738
:104AB0004FF000024FF00003D7E91E8949468B00F2
:104AC000414643EA917341468A00D7E92001FBF74A
:104AD000EFFB02460B46394BA3FB02135B09642133
:104AE00001FB03F3D31A1B013233344AA2FB032325
:104AF0005B0903F0F0031C44D7F8FC3000223B674D
:104B00007A67D7E91C8942464B469118B9605B41E8
:104B1000FB60D7E9022341465118396049464B41B1
:104B20007B604FF000024FF00003D7E900AB59461D
:104B3000CB00514643EA51735146CA00104619460C
:104B4000034642469B18BB664B460A4642EB0303AC
:104B5000FB66D7F8F4305B6800223B667A664FF05C
:104B600000024FF00003D7E9188949468B004146FF
:104B700043EA917341468A00D7E91A01FBF798FB93
:104B800002460B460D4BA3FB02135B09642101FB9C
:104B900003F3D31A1B013233084AA2FB03235B0938
:104BA00003F00F02D7F8F4301B6822449A6000BF6C
:104BB00007F58077BD46BDE8B08F00BF1F85EB517C
:104BC00084B080B584B000AF786007F11C0080E845
:104BD0000E003B6B012B22D17B689B6B23F4803250
:104BE0007B689A637B68DB6823F4840323F04003CB
:104BF0007A68D3607B68DB6823F440127B68DA60F4
:104C0000FB6C012B05D17B68DB6843F480127B6869
:104C1000DA60786800F0C0F90346FB731AE07B683D
:104C2000DB6843F040027B68DA60786800F0B4F932
:104C30000346FB733B6C002B06D17B689B6B43F4F4
:104C400080327B689A6305E07B689B6B23F480323B
:104C50007B689A63BB6A012B0BD17B689B6843F02E
:104C600006027B689A607B689B6843F020027B6841
:104C70009A60FB7B18461037BD46BDE8804004B003
:104C8000704780B483B000AF78607B689B6843F066
:104C900001027B689A60002318460C37BD465DF818
:104CA000047B704780B483B000AF78607B689B68FA
:104CB00023F001027B689A60002318460C37BD463A
:104CC0005DF8047B704780B584B000AF78600B4618
:104CD000FB700023FB607B68DB6823F0C0427B68CD
:104CE000DA60FB78012B15D17B68DB6843F000525A
:104CF0007B68DA600120FBF79FFFFB680133FB60F4
:104D0000786800F03AF90346012B1ED0FB68312B7E
:104D1000F0D91AE0FB78002B15D17B68DB6843F0F3
:104D200080427B68DA600120FBF786FFFB68013375
:104D3000FB60786800F021F90346002B05D0FB6882
:104D4000312BF0D901E0012305E0FB68322B01D1C2
:104D5000012300E0002318461037BD4680BD000047
:104D600080B485B000AF786039600023FB60FB68D9
:104D70000133FB60FB68134A934201D903231BE014
:104D80007B681B69002BF2DA0023FB603B689B0108
:104D900043F020027B681A61FB680133FB60FB680B
:104DA000084A934201D9032306E07B681B6903F09C
:104DB0002003202BF0D0002318461437BD465DF8A1
:104DC000047B7047400D030080B485B000AF78606D
:104DD0000023FB60FB680133FB60FB68114A9342D0
:104DE00001D9032318E07B681B69002BF2DA00234A
:104DF000FB607B6810221A61FB680133FB60FB6873
:104E0000084A934201D9032306E07B681B6903F03B
:104E10001003102BF0D0002318461437BD465DF860
:104E2000047B7047400D030080B489B000AFF86088
:104E3000B96011461A460B46FB711346BB80FB68EE
:104E40007B61BB68FB6197F82830002B23D1BB88BE
:104E500003339B083B610023BB6118E0FB791A0315
:104E60007B69134403F580531A46FB691B68136082
:104E7000FB690133FB61FB690133FB61FB690133B2
:104E8000FB61FB690133FB61BB690133BB61BA693B
:104E90003B699A42E2D3002318462437BD465DF8A9
:104EA000047B704780B48BB000AFF860B9601346E4
:104EB000FB80FB68BB61BB687B62FB889B089BB285
:104EC0007B61FB8803F00303FB8300233B6214E058
:104ED000BB6903F580531A687B6A1A607B6A0133E9
:104EE0007B627B6A01337B627B6A01337B627B6A14
:104EF00001337B623B6A01333B623A6A7B699A42C7
:104F0000E6D3FB8B002B1ED000233B62BB6903F56D
:104F100080531A4607F1100312681A603A693B6A17
:104F2000DBB2DB0022FA03F3DAB27B6A1A703B6A67
:104F300001333B627B6A01337B62FB8B013BFB836A
:104F4000FB8B002BEAD17B6A18462C37BD465DF8F7
:104F5000047B704780B485B000AF78607B685B6984
:104F6000FB607B689B69FA681340FB60FB6818462E
:104F70001437BD465DF8047B704780B483B000AF42
:104F800078607B685B6903F0010318460C37BD4607
:104F90005DF8047B7047000080B485B000AF786096
:104FA0000023FB60FB680133FB60FB68134A9342FC
:104FB00001D903231BE07B681B69002BF2DA002375
:104FC000FB607B681B6943F001027B681A61FB6828
:104FD0000133FB60FB68094A934201D9032306E0D1
:104FE0007B681B6903F00103012BF0D000231846F6
:104FF0001437BD465DF8047B704700BF400D0300C9
:1050000084B080B586B000AF786007F1240080E8F6
:105010000E000023FB757B68FB60FB6803F5606393
:105020001A46002313607B689B6B23F400127B6895
:105030009A637B68DB6B03F48073002B18D0FB6AE8
:10504000012B0AD1FB6803F580631B68FA6802F53F
:10505000806243F00403136014E0FB6803F580638F
:105060001B68FA6802F5806223F00403136009E00C
:10507000FB6803F580631B68FA6802F5806223F021
:105080000403136010217868FFF76AFE0346002BC3
:1050900001D00123FB757868FFF796FE0346002BCD
:1050A00001D00123FB7500233B6115E03B695A01E8
:1050B000FB68134403F5A0631A464FF0FF33936077
:1050C0003B695A01FB68134403F5A0631A460023A9
:1050D000D3603B6901333B61BB6A3A699A42E5D3CD
:1050E0007B6800229A617B684FF0FF325A617B68CF
:1050F000DB6B03F48073002B0BD07B684FF40072E2
:105100005A627B68134A9A627B68134AC3F800218B
:1051100009E07B6880225A627B68104A9A627B6849
:105120000F4AC3F800213B6B002B05D17B689B69BC
:1051300043F010027B689A617B689A69094B1343BC
:105140007A689361FB7D18461837BD46BDE88040FC
:1051500004B07047000200010003E000800060001E
:10516000E0004000080020A380B485B000AF786064
:105170000B46FB707B68FB60FB6803F580631B6874
:10518000FA6802F5806223F003031360FB6803F5FD
:1051900080631A68FB7803F00303F96801F5806106
:1051A00013430B60FB78012B07D1FB6803F5806389
:1051B0001A464BF68033536009E0FB78022B06D188
:1051C000FB6803F580631A4641F270735360002355
:1051D00018461437BD465DF8047B704780B584B02F
:1051E00000AF78607B68FB600023BB60FB6803F561
:1051F00088631B68BB60BB6823F02E03BB60BB6881
:10520000FA6802F5886243F4807313606420FBF748
:1052100013FDBB68FA6802F5886223F4807313609B
:105220000A20FBF709FD002318461037BD4680BD54
:1052300080B485B000AF78600B46FB707B68FB6084
:105240000023BB60FB6803F588631B68BB60BB6819
:1052500023F02E03BB60BB6803F48053002B09D1FD
:10526000FB78012B06D1BB68FA6802F5886243F42B
:1052700080531360BB6803F48053B3F5805F09D19A
:10528000FB78002B06D1BB68FA6802F5886223F42C
:1052900080531360002318461437BD465DF8047B25
:1052A000704780B485B000AF78607B68FB600023F6
:1052B000BB60FB6803F588631B68BB60BB685B0C65
:1052C00003F0030318461437BD465DF8047B7047AE
:1052D00080B485B000AF78607B68FB60FB6803F545
:1052E00080639B689BB218461437BD465DF8047B0B
:1052F0007047000080B588B000AF7860084611465E
:105300001A460346FB700B46BB7013467B700023A6
:10531000FB777B683B61FB785A013B69134403F5DB
:10532000A0631A464FF0FF33936097F82C30032B9D
:105330007ED801A252F823F049530008F353000825
:1053400049530008B5530008FB785A013B691344E0
:1053500003F5A0631A4640F29D43D36097F90230EB
:10536000002B10DAFB785A013B69134403F5A06364
:10537000DB68FA7851013A690A4402F5A06243F405
:105380008073D36057E07B68DB6B03F48073002B82
:1053900051D0FB785A013B69134403F5A063DB68E5
:1053A000FA7851013A690A4402F5A06243F06003B9
:1053B000D36040E0FB785A013B69134403F5A063D6
:1053C0001A4640F29D63D36097F90230002B34DA1D
:1053D000FB785A013B69134403F5A063DB68FA7854
:1053E00051013A690A4402F5A06243F48073D36024
:1053F00023E0FB785A013B69134403F5A0631A4686
:1054000040F22523D36097F90230002B17DAFB789E
:105410005A013B69134403F5A063DB68FA78510134
:105420003A690A4402F5A06243F4C073D36006E00F
:105430000123FB7704E000BF02E000BF00E000BFF3
:10544000FB785A013B69134403F5A063DB68FA78E3
:1054500051013A690A4402F5A06243F00203D360A5
:105460003B6903F580639A69FB7803F00F03012120
:1054700001FA03F3396901F5806113438B617B689D
:105480009B6943F000727B689A6197F90230002BA8
:1054900003DA4FF40043BB6101E00023BB6178688D
:1054A000FFF7FFFEF86097F82830022B06D1FB6863
:1054B000022B03D04FF400337B6101E000237B61BA
:1054C0007B789B0503F0FE52BB78DB0203F4F043CC
:1054D0001A4397F82C309B0403F440231A433B8E65
:1054E000C3F30A031A43BB691A43FB7859013B69AA
:1054F0000B4403F5A06319467B6913430B6097F8CF
:105500002C30032B03D097F82C30012B0FD1FB78D4
:105510005A013B69134403F5A0631B68FA785101F3
:105520003A690A4402F5A06243F000531360FB7F1E
:1055300018462037BD4680BD80B58CB002AFF860FC
:10554000B9601346FB71FB683B62BB685B78FB612B
:105550004FF480737B83FB68DB6B03F48073002B59
:105560002DD0BB681B79002B29D1FB79012B17D1DA
:10557000BB68DB79002B03D0BB68DB79022B0FD132
:10558000FB695A013B6A134403F5A063DB68FA69BF
:1055900051013A6A0A4402F5A06223F07003D36015
:1055A000FB79002B0BD1BB685B79012B07D1BB6862
:1055B0005B781946F86800F00FFA0023F8E0BB6842
:1055C0005B69002B18D0BB685B69BA681289134409
:1055D000013BBA681289B3FBF2F3FB84FA8C7B8B34
:1055E0009A420BD97B8BFB84FB8CBA68128903FB34
:1055F00002F2BB681A6101E00123FB84BB68DB781F
:10560000002B07D0FB8CBA68128903FB02F2BB683F
:105610001A6103E0BB685A69BB681A61BB681B6901
:10562000C3F31202FB8CD904634B0B401A43BB68D3
:105630009B7A5B0703F0C043F9694801396A01446A
:1056400001F5A06113430B61FB79002B09D0BB6806
:10565000D968FB695A013B6A134403F5A0630A4603
:105660005A613B6A03F580639B6803F00103002BDA
:105670000CBF01230023DBB27B76FB695A013B6A36
:10568000134403F5A0631B68FA6951013A6A0A449E
:1056900002F5A06223F000531360FB695A013B6AD4
:1056A000134403F5A0631A687B7E5B07F969480120
:1056B000396A014401F5A06113430B60FB695A018B
:1056C0003B6A134403F5A0631B683B613B6923F00D
:1056D00080433B61BB68DB78002B04D03B6943F41B
:1056E00000433B6103E03B6923F400433B613B69BA
:1056F00043F000433B61FB695A013B6A134403F5E5
:10570000A0631A463B691360FB79002B01D000238C
:105710004EE0BB68DB78002B49D1BB685B69002B8E
:1057200045D0BB68DB79032B30D801A252F823F0B7
:1057300041570008655700084157000865570008A1
:10574000BB685B6903339B08FB82FA8AFB68DB6AF0
:105750009BB29A421CD9FB689B6943F02002FB680C
:105760009A6115E0BB685B6903339B08FB82FA8A88
:105770003B6A03F580631B699BB29A420AD9FB68B6
:105780009B6943F08062FB689A6103E000BF02E01E
:1057900000BF00E000BFBB68D968BB685A78BB682F
:1057A0005B699BB200200090F868FFF73DFB002387
:1057B00018462837BD4680BD0000F81F80B485B06C
:1057C00000AF78607B68FB60FB6803F580635B6912
:1057D0009BB218461437BD465DF8047B704780B411
:1057E00089B000AF78600B46FB707B68FB61FB788B
:1057F000BB610023FB60BB695A01FB69134403F5DD
:10580000A0631B689B0C03F003037B61BB695A0117
:10581000FB69134403F5A0631B68DB0F03F001036E
:105820003B617B689B6803F02003202B04D13B691C
:10583000002B01D10023C8E07B69002B02D07B69DB
:10584000022B63D1BB695A01FB69134403F5A063C2
:105850001B68BA695101FA690A4402F5A06243F073
:10586000804313607B689B6803F02003002B40F0AB
:10587000AB807B68DB6A03F47F03002B33D1BB6909
:105880005A01FB69134403F5A0631B68BA6951010F
:10589000FA690A4402F5A06223F000431360BB6971
:1058A0005A01FB69134403F5A0631B68BA695101EF
:1058B000FA690A4402F5A06243F000431360FB68F2
:1058C0000133FB60FB68B3F57A7F1DD8BB695A01D1
:1058D000FB69134403F5A0631B6803F00043B3F1B5
:1058E000004FECD070E0BB695A01FB69134403F52B
:1058F000A0631B68BA695101FA690A4402F5A06203
:1059000043F0004313605FE000BF5DE0BB695A01F4
:10591000FB69134403F5A0631B68BA695101FA6976
:105920000A4402F5A06243F080431360FB6903F56B
:1059300080631B6903F47F03002B33D1BB695A01D9
:10594000FB69134403F5A0631B68BA695101FA6946
:105950000A4402F5A06223F000431360BB695A01B8
:10596000FB69134403F5A0631B68BA695101FA6926
:105970000A4402F5A06243F000431360FB68013360
:10598000FB60FB68B3F57A7F1DD8BB695A01FB69E0
:10599000134403F5A0631B6803F00043B3F1004F09
:1059A000ECD011E0BB695A01FB69134403F5A06315
:1059B0001B68BA695101FA690A4402F5A06243F012
:1059C0000043136000E000BF002318462437BD46A3
:1059D0005DF8047B7047000080B487B000AF78604A
:1059E0000B46FB707B687B61FB783B610123FB60AE
:1059F000FB68DA04154B13403A6951017A690A448D
:105A000002F5A06243F0004313613B695A017B69D0
:105A1000134403F5A0631B68BB60BB6823F080439D
:105A2000BB60BB6843F00043BB603B695A017B69C4
:105A3000134403F5A0631A46BB681360002318469D
:105A40001C37BD465DF8047B704700BF0000F81F9F
:105A500080B588B000AF78600023FB777B687B61FE
:105A60000023FB607868FFF71DF910217868FFF7C5
:105A700077F90346002B01D00123FB777868FFF705
:105A8000A3F90346002B01D00123FB770023BB6160
:105A90001FE0BB695A017B69134403F5A0631B68CF
:105AA0003B613B6943F080433B613B6923F000432A
:105AB0003B613B6923F400433B61BB695A017B694D
:105AC000134403F5A0631A463B691360BB690133B5
:105AD000BB61BB690F2BDCD90023BB6134E0BB6920
